:020000040800F2
:10000000E0060020D5000008F91C0008171B0008B6
:1000100000000000000000000000000000000000E0
:100020000000000000000000000000002F20000879
:100030000000000000000000011E00083120000840
:10004000E7000008E7000008E7000008E7000008F4
:10005000E7000008E7000008E7000008E7000008E4
:10006000E7000008E7000008E7000008E7000008D4
:10007000E7000008E7000008E7000008E7000008C4
:10008000E7000008E7000008E7000008E7000008B4
:10009000E7000008E7000008E7000008E7000008A4
:1000A000E7000008E7000008E7000008E127000873
:1000B000E7000008E7000008E7000008E700000884
:1000C0000348854600F0F8FA004800474931000827
:1000D000E00600200448804704480047FEE7FEE7AA
:1000E000FEE7FEE7FEE7FEE7B5200008C1000008D6
:1000F00030B50B46014600202022012409E00D46C0
:10010000D5409D4205D31D469540491B2546954047
:1001100040191546521E002DF1DC30BD10B5202AC5
:1001200004DB0846203AD040002110BD0B46D340E6
:10013000D0402024A21A91400843194610BD03461E
:100140000B439B0703D009E008C9121F08C0042A0B
:10015000FAD203E00B780370401C491C521EF9D2FE
:1001600070470000F0B507460846584087B0C00FFA
:10017000049048000E46590040084908BC1A8841BE
:1001800005D2384631461E4617460B4602465800F1
:10019000400810434CD0300D039040055900400DED
:1001A000490D0590401A0290402872DA1803012187
:1001B000000B09050843019004980092002805D01F
:1001C00001995242002088410092019002984021FA
:1001D0000A1A0199009800F0B9F905460C466B46D9
:1001E00007CB00F0C3F9C0197141039A0E0D00232B
:1001F000D71756401A467A40164344D0049A002A2C
:100200002DD0029A012A039A15DC1205C01A9141D9
:1002100001263605001C7141D20F059ED2070093BE
:10022000019202962A46234600F0C0F907B0F0BDBD
:1002300038463146FAE71605224A0F46B218C01A68
:10024000B74101210905001C4F4100187F411146AB
:1002500018187941E20F10436D19644113E0E20769
:100260006D0815436408C2071443039A012612055A
:10027000C01A91413605001C7141CE074008304339
:100280004908C01851412A46234600F082F9CDE7BB
:10029000FFE7049801224000C117121A00238B4186
:1002A00004983146C417381AA141EEE730B401244E
:1002B000E407634030BC55E730B40124E4076140F3
:1002C00030BC4FE70000E0FFF0B51FB488B00B99D9
:1002D0000998002448400999C00F4900490809912C
:1002E000C0070B990090490049080B91099908989B
:1002F000A64608431CD00B990A98084318D00998C1
:1003000001244000420D4800410D099824050003D6
:10031000000B204309900B980003000B20430B9027
:1003200050181C494018002201901446104605E060
:10033000002001460DB0F0BD032801DA034600E0BD
:1003400003239C46C11A0AAE0AE05F0008ADED5BCC
:100350004F00F75B7D430027AA187C41491C5B1EB8
:100360006145F2DD410004AB5A522104120C0A43EC
:10037000240C401C0828DFDB01980290009970468D
:1003800001910090059B049A0799069800F00EF9D8
:10039000D0E700000DFCFFFFF0B50C465C4085B0D7
:1003A000E40FE40703944C000026640859009446C7
:1003B000490802460296224321D062460A431ED0D3
:1003C0006200570D4A000E032303550D0124024617
:1003D0002C492405781B1B0B360B4018234326435E
:1003E000614600901C46501AB44103D30098401C4B
:1003F000009002E0921800985B41002803DA002088
:10040000014605B0F0BD00200121090507468646DA
:1004100011E064461D46141BB54106D36546521BC8
:10042000B341744607430C43A646CD07400849082C
:10043000284392185B4105460D43EAD11046184304
:1004400013D06046194650407140084306D06046BC
:10045000101AB34106D20122002306E00022012334
:10046000DB0702E00122D2435310009874460105D5
:10047000381C6141029C039D0019694100F089F814
:10048000BFE70000FD0300000EB5C217C10F5040CA
:10049000CA0740180021054B0293019200910A46B9
:1004A0000B4600F083F803B000BD000033040000E9
:1004B0004A0009030123090B1B051943094B10B519
:1004C000520D9A4201DA002010BD064B34339A4295
:1004D00003DC9A1AFFF722FE10BD03495118884029
:1004E00010BD0000FF030000CDFBFFFFF0B51FB4FF
:1004F0000646002082B005464024019100901BE092
:10050000019922460F463046FFF708FE049A059BE4
:10051000801A994110D310461946224600F016F869
:10052000361A8F410197224601200021009F00F0DA
:100530000DF838184D4100902046641E0028DFDC7D
:10054000019B00982946324607B0F0BD10B5202A1D
:1005500004DB0146203A9140002010BD9140202349
:100560009C1A0346E3401943904010BD10B5202A61
:1005700006DBCB170846203A1041C1170B4306E0B3
:100580000B461341D0402024A21A9140084319463B
:1005900010BD10B5002B08DA0024401C61419218F0
:1005A0005B411A4301D14008400010BDF0B51FB4B3
:1005B00082B005460C0003D0084602F029F902E09B
:1005C00002F026F920300246009021462846FFF727
:1005D000BDFF049B059A04460F4618431143084388
:1005E00014D0184610431BD0009840210A1A184610
:1005F0000599FFF793FD05460E46009A0599049864
:10060000FFF7A4FF084305D0012004E02046394647
:1006100007B0F0BD0020C11705430E432C433743FC
:1006200000990E986305401A7905E40A00220C43EC
:10063000FD0A0A3002D500200146E9E7010510193C
:1006400069410C9C0D9D00196941FFF7A2FFDFE78E
:100650004A0009030123090B1B0519430A4B10B576
:10066000520D9A4202DA0020014610BD064B343387
:100670009A4203DC9A1AFFF751FD10BD034BD218C2
:10068000FFF764FF10BD0000FF030000CDFBFFFF7C
:1006900010B5002904DB0124E40740428C412146C7
:1006A000002B04DB1C460123DB075242A341994285
:1006B00000D1904210BD0000064C0125064E05E019
:1006C000E36807CC2B430C3C98471034B442F7D373
:1006D000FFF7FAFCFC3100081C32000870B58C18DA
:1006E0000578401C6B075B0F01D10378401C2A1171
:1006F00006D10278401C03E006780E70401C491CAD
:100700005B1EF9D12B0705D40023521E0DD40B70AC
:10071000491CFAE70378401CCB1A921C03E01D78B1
:100720000D70491C5B1C521EF9D5A142D8D3002084
:1007300070BD0000F8B500F071F80124164D2403D7
:1007400000222146284600F09CF9012209271602C2
:10075000FF063146384600F094F9012000F0D2F847
:100760000E4B02220E490F4800F0F2FD012000F06E
:10077000C9F801222146284600F083F900223146BB
:10078000384600F07EF9012000F0BCF80122314625
:10079000384600F076F9F8BD00040048FFFF00007D
:1007A000140000205801002010B51948184942785B
:1007B0007D241848E4008978012A08D0022A17D03D
:1007C000032A14D101291CD000291CD009E00129D9
:1007D00002D0002902D004E0002200E00122012121
:1007E00013E0234604220A490B4801F02FF910BDFB
:1007F000012904D00029F4D10122022105E00022C0
:10080000FBE7002200E00122042100F03AF9E8E7CA
:100810000000002000040048FC01002070B51E4CC0
:100820000A2260780A23010900075143000F0818C3
:10083000A1780A0909075A43090F51186422504345
:100840004018FFF721FE0022144BFFF7A5FD144DC1
:100850000246696128610B4612A001F0C9FF00221F
:10086000144B69692869FFF797FD0022124BFFF7C7
:100870002BFDFFF71DFE68800105C2B22378090F2A
:10088000281D032B06D0042B03D19023194301709C
:10089000427070BD1023F9E70000002000005940AD
:1008A000100000204441435F64617461203D2025B5
:1008B000660D0A000000044000408F4070B500241F
:1008C000014620314A78022A03D0042181630124A1
:1008D00016E0026813680E25AB43136002681368C4
:1008E0005B085B0013600122056C1346AB40C56BCF
:1008F0006B604A7000220A70416B002900D0884763
:10090000204670BD31B500F0C3F8009C0546601C60
:1009100000D0641C00F0BCF8401BA042FAD338BDE4
:10092000F8B5002393E0224601249C40A4462240CF
:100930007ED04C68022C01D0122C0CD1DC08A40013
:1009400027183C6A5D07ED0E0F26AE40B4430E69D2
:10095000AE4026433E6205685E000324B4400F7932
:10096000A543BF07BF0FB7402F4307604D68012D58
:1009700005D0022D03D0112D01D0122D0ED1856886
:10098000CF68A543B7402F43876047686546AF43AC
:100990000D79ED06ED0F9D403D434560C568A543CB
:1009A0008C68B4402C43C4604C68E4004ED52B4C9A
:1009B000A56901263543A561A4699D0834400094CA
:1009C000274CAD002F19BC689D072E0F0F25B54091
:1009D000AC430925ED06A84201D1002514E0214DC4
:1009E000A84201D101250FE01F4DA84201D10225E7
:1009F0000AE01E4DA84201D1032505E01C4DA84286
:100A000001D1042500E00525B5402543BD60194C02
:100A100025684E689543F60300D515432560656843
:100A20004E689543B60300D515436560A56800E0A0
:100A30000CE04E689543F60200D51543A560E568C5
:100A40004E689543B60200D51543E5605B1C0A6805
:100A50001446DA4000D066E7F8BD000000100240FE
:100A6000000001400004004800080048000C004855
:100A700000100048000401400069084000D0012037
:100A80007047002A01D08161704781627047000081
:100A90000148006870470000040000200248016817
:100AA000491C0160704700000400002010B5064892
:100AB0000168102211430160002000F007F800F0E7
:100AC00017F8002010BD00000020024010B50446B9
:100AD00000F078F97D21C900FFF70AFB00F0FEFC69
:100AE00000222146501E00F02FF8002010BD00000B
:100AF00008B50F4881690122114381618169114064
:100B00000091C26901040A43C261C0690022084021
:100B100000901146501F00F017F800221146901E59
:100B200000F012F800221146501E00F00DF808BD2A
:100B300000100240C106C90E01208840014908602A
:100B40007047000000E100E010B501F0D7F810BDDB
:100B5000F8B504460068434DC00352D5E869002645
:100B6000C00007D4E96928040143E961E96901404B
:100B7000012600913C480168C90510D4016882151E
:100B800011430160FFF784FF074604E0FFF780FF91
:100B9000C01B642824D834480068C005F6D5286AEC
:100BA00003273F02384020D06168394081421CD081
:100BB000286A2A6AB843012109040A432A622A6A78
:100BC0008A432A622862C0070FD0FFF761FF0090B6
:100BD00008E0FFF75DFF0099411A2448814201D9DE
:100BE0000320F8BD286A8007F3D5286A6168B843F6
:100BF00008432862002E04D0E869012109078843D0
:100C0000E8612078C00705D0286BA16880088000C3
:100C1000084328632078800706D5286B0321090440
:100C20008843E168084328632078800605D5286B4F
:100C3000102188432169084328632068800305D573
:100C4000286B80218843A1690843286320884005D8
:100C500005D5286B4021884361690843286300203B
:100C6000F8BD000000100240007000408813000032
:100C7000F8B505464E480E460068C007C00FB042A2
:100C80000AD24B48016849084900314301600068B5
:100C9000C007C00FB04270D12878464C800705D5F8
:100CA0006068F0218843A968084360602878C0071D
:100CB00053D06868012817D0022818D0032819D00B
:100CC00021688907002958DA616889088900014389
:100CD0006160FFF7DDFE69680746012913D002292C
:100CE0001DD0032927D034E021688903EAE7216871
:100CF0008901E7E7616BC903E4E7FFF7C9FEC11BA0
:100D00002D48814223D860680007800F0128F4D164
:100D100023E0FFF7BDFEC11B2748814217D860685A
:100D20000007800F0228F4D117E0FFF7B1FEC11BC6
:100D3000214881420BD860680007800F0328F4D156
:100D40000BE0FFF7A5FEC11B1B48814201D9032020
:100D5000F8BD60680007800FF3D115480168C90726
:100D6000C90FB1420BD901684908490031430160FC
:100D70000068C007C00FB04201D00120F8BD28783C
:100D8000400706D56068072109028843E9680843DF
:100D9000606000F02DF86168084A0906090F515C8F
:100DA000C840074908600020FFF790FE0020F8BD0A
:100DB000002002400010024088130000E4310008C7
:100DC000080000200148006870470000080000206B
:100DD0000448054900684968044A4905490F515CBF
:100DE000C84070470800002000100240F43100089D
:100DF00030B516A30FCB89B06C460FC417A30FCB29
:100E00000FC41A494A680C20144604401848042CA0
:100E100005D0184B082C04D00C2C00D1184609B072
:100E200030BD9402240F6D462C5DC96A04AD0907DC
:100E3000090FD203695C920F022A02D0032A00D163
:100E40001846FFF755F96043E9E70000020304057F
:100E5000060708090A0B0C0D0E0F101001020304FF
:100E600005060708090A0B0C0D0E0F1000100240B2
:100E700000127A00006CDC02FEB504460078F04EE9
:100E8000F04DC00748D068680007800F01281FD0C8
:100E900068680007800F022804D16868C003800FCB
:100EA000022815D06168012919D001208004002989
:100EB00001D0052917D02968B143296029688143E9
:100EC0002960606800281BD0FFF7E2FD074613E0A9
:100ED0002868800320D56068002876D01CE0286848
:100EE00030432860EDE7296801432960F7E7FFF701
:100EF000CFFDC01B642869D828688003F7D50BE0B4
:100F0000FFF7C6FD074604E0FFF7C2FDC01B6428DB
:100F1000F1D828688003F7D4207880073ED5686828
:100F20000007800F14D068680007800F022804D1E2
:100F30006868C003800F01280AD0E068002828688C
:100F40001DD0012108432860FFF7A2FD07460BE0F2
:100F5000286880070BD5E068012836D107E0FFF745
:100F600097FDC01B0228C6D828688007F7D52868D7
:100F7000F82188432169C900084328600EE0400831
:100F800040002860FFF784FD074604E0FFF780FD7E
:100F9000C01B0228AFD828688007F7D42078000744
:100FA00024D5E0690028686A11D0012108436862ED
:100FB000FFF76EFD074604E0FFF76AFDC01B02283D
:100FC00099D8686A8007F7D510E036E1D1E040088B
:100FD00040006862FFF75CFD074604E0FFF758FD3C
:100FE000C01B022887D8686A8007F7D420780427B6
:100FF0004007002861DA00200190E869C00008D4A9
:10100000E969B8060143E961E969014001200091FD
:1010100001908D480168C90511D4016882151143FA
:101020000160FFF735FD009005E0FFF731FD009905
:10103000401A642897D884480068C005F5D5A06890
:1010400001280AD0002801D0052811D0286A4008BC
:1010500040002862286AB84302E0286A0121084358
:101060002862A068002812D0FFF712FD00900AE065
:10107000286A38432862F0E7FFF70AFD0099411A11
:101080007248814275D8286A8007F5D50DE0FFF7D0
:10109000FFFC009006E0FFF7FBFC0099411A6B484B
:1010A000814266D8286A8007F5D40198002804D0C8
:1010B000E969012000078143E9612078C00635D540
:1010C000606901280CD0401D686B24D038436863E8
:1010D000686B400840006863FFF7DAFC074622E0CF
:1010E000686B38436863686B012108436863FFF7E6
:1010F000CFFC074604E0FFF7CBFCC01B022838D822
:10110000686B8007F7D5686BF8218843A169C9002F
:10111000084368630AE0B8436863F4E7FFF7B8FC84
:10112000C01B022825D8686B8007F7D4207880067A
:1011300037D568680007800F032813D06868000758
:10114000800F022804D16868C003800F032809D0EB
:10115000206A0028686B16D030436863FFF798FC5C
:1011600006460CE0686BC0031BD5206A012864D1D9
:1011700017E05BE0FFF78CFC801B022856D8686BF9
:10118000C003F7D50DE0B0436863FFF781FC064666
:1011900004E0FFF77DFC801B022847D8686BC00382
:1011A000F7D4606A002846D069680907890F0229C8
:1011B00043D0012636060228286805D0B0432860AF
:1011C000FFF766FC044633E0B0432860FFF760FC9D
:1011D000074604E0FFF75CFCC01B022826D82868FD
:1011E0008001F7D4E86A216B000900010843E86236
:1011F000A16AE06A084369687B22D20391430843ED
:101200006860286830432860FFF742FC044604E029
:10121000FFF73EFC001B022808D828688001F7D59C
:1012200009E0FFF735FC001B022801D90320FEBDB1
:1012300028688001F5D40020FEBD0120FEBD00001D
:101240000000010000100240007000408813000000
:10125000F8B5040007D0002625464035A662687F11
:10126000002802D005E00120F8BD2E77204600F0CE
:101270004BF802236B77206801684022914301609C
:101280000721E0680902884201D9002201E0012219
:1012900012030F273F02B84202D0884200D0A66254
:1012A000276B002F05D1884201D9236301E001207B
:1012B0002063A16860686369084321691943084392
:1012C0000123A1695B0219400843E1690843216ACF
:1012D0000843A16A084321680860616B606AA369DA
:1012E00008431B0C0427E1683B401943084321686D
:1012F000104348602068C1697A029143C161266643
:10130000012068770020F8BD00B500680D4987B05E
:10131000884215D10C48C26909140A43C261C069E8
:101320000840059005204003009002200021019014
:10133000032002910491039069460448FFF7F0FAF4
:1013400007B000BD00380040001002400004004813
:10135000FFB5064604464036307F002781B00D4673
:10136000012809D001203077FFF792FB0090707FB1
:10137000012804D002279DE0022005B0F0BD002D19
:1013800072D0039800286FD0032070770020206669
:10139000A5630399A1870399E1872064B080F08059
:1013A0002065E0640121A068C903884205D1206856
:1013B0000168012292031143016020680168490617
:1013C00003D401684022114301600720E168000254
:1013D0008142606823D9002802D0E08F01281AD109
:1013E00021682888C86005E020688168890706D5DB
:1013F0002988C160E08F401EE087AD1C0BE0049897
:1014000000283ED0401C06D0FFF742FB0099411A4D
:101410000498814235D2E08F0028E5D136E00028DB
:1014200002D0E08F01282ED1E08F012803D9216856
:101430002888C8600CE02168287808730FE02068CD
:101440008168890711D5E18F012906D92988C160F2
:10145000E08F801EE087AD1C15E029780173E08FD6
:10146000401EE0876D1C0EE023E00498002808D0A1
:10147000401C08D0FFF70CFB0099411A04988142E8
:1014800001D3032716E0E08F0028D8D12046009A28
:10149000049900F015FD002801D020202066A068E6
:1014A000002803D12068C16880680090206E002861
:1014B00000D00127012070770020307738465CE7A4
:1014C000042204490428086902D090430861704747
:1014D0001043FBE700E000E070470000094910B549
:1014E000401E884201D9012010BD074C60610321D4
:1014F000081F00F003FC0020A061072020610020ED
:1015000010BD0000FFFFFF0000E000E010B5FFF796
:10151000E3FF10BD70B5040005D025462035687F77
:10152000002802D006E0012070BD00202877204668
:1015300000F00AF802206877211D206800F0E8FD1D
:1015400001206877002070BD08B500680549884211
:1015500007D10548C26981150A43C261C0690840C4
:10156000009008BD002000400010024000B5006857
:10157000094985B088420DD11020009002200190C9
:101580000020029003900420049009206946C006C0
:10159000FFF7C6F905B000BD00200040F8B50646CB
:1015A00004462036307F0D4601280DD001203077CB
:1015B000022070770427002A08D0042A16D0082AAF
:1015C0002AD00C2A4DD137E00220F8BD206800F067
:1015D000F5FD2068816908221143816120688169D5
:1015E000B9438161206881692A6912E0206800F0AE
:1015F00029FE206882690121C9020A4382612068AC
:1016000081690122920291438161206881692A697E
:1016100012021143816124E0206800F053FE20682B
:10162000C26908210A43C2612068C169B943C16126
:101630002068C1692A6912E0206800F085FE2068F0
:10164000C1690122D2021143C1612068C26901212E
:1016500089028A43C2612068C1692A691202114362
:10166000C1610120707700203077F8BD70B50400AB
:1016700005D025462035687F002802D006E00120ED
:1016800070BD00202877204600F00AF80220687715
:10169000211D206800F03CFD01206877002070BD0E
:1016A0007047000010B504460068012200F07AFD82
:1016B0000C482168814208D00B48814205D00B4874
:1016C000814202D00A48814204D1486C0122D203EF
:1016D0001043486420680168012211430160002022
:1016E00010BD0000002C01400040014000440140BA
:1016F0000048014070477047F8B503680446D86950
:10170000196805072D0F07D1820605D58A0603D56E
:10171000204600F015FFF8BD9A68002D64D0D5076B
:10172000ED0FFF2621360E402E435DD0C60706D0B2
:10173000CE0504D501261E62E36E3343E3668707B8
:1017400002230426002F06DAD70704D027683B625D
:10175000E76E3743E766470706D5D20704D022680D
:101760001662E26E1A43E266020709D520220A4099
:101770002A4305D0236808221A62E36E1343E36606
:10178000E26E002AC7D0800604D5880602D520461E
:1017900000F0D6FEE06E000703D4206880684006A3
:1017A0001CD5204600F0B0FE20688168490611D59E
:1017B0008168402291438160606E00280AD01A49F6
:1017C0004163606EFFF77AF80028A4D0606E416B29
:1017D0008847F8BD2046FFF78EFFF8BD2046FFF78B
:1017E0008AFF0020E066F8BDC5020DD552020BD578
:1017F000012000051862202120466030417281726C
:101800002046FFF777FFF8BD020605D50A0603D587
:10181000204600F081FFF8BD4006FCD54806FAD509
:10182000204600F080FEF8BDF524000870B50400E5
:1018300005D025466035687A002802D006E00120F0
:1018400070BD00202872204600F026F8242068721F
:1018500020680168490849000160204600F0AEFE9A
:101860000128EDD0606A002802D0204600F0A2FDD9
:10187000206841680922D202914341602068816852
:101880002A2291438160206801680122114301608E
:10189000204600F0F5FD70BD30B51F4D04680021F5
:1018A0001E480222032387B0AC421CD18569540331
:1018B000254385618069029120400590580200907F
:1018C000012004900920039301926946C006FFF7A6
:1018D00027F8002211461B20FFF736F91B20FFF7DF
:1018E00029F907B030BD0E4DAC42FAD1C5690124CB
:1018F000A4042543C561C0690291204005900320DE
:1019000080020090042004900393019269460548E8
:10191000FFF706F8E5E7000000380140001002403C
:101920000048004000040048F0B5034660339C7A4C
:10193000202C44D100290BD0002A09D0012584682D
:101940002D03AC4206D10669002E03D1CE0701D08B
:101950000120F0BD1E7A012E31D001261E72416594
:10196000014640310A834A83FF27AC4204D1026911
:10197000002A12D1134A0EE07F22002C08D0012544
:101980002D07AC420AD10469002C04D03F2202E0AA
:101990000469002C01D08A8300E08F830021C16696
:1019A00022229A72197201688A6832438A6000683A
:1019B0000168FF222132114301600020F0BD0220A6
:1019C000F0BD0000FF01000070B5134D00242A5D3A
:1019D000214612A000F00CFF641CE4B2042CF6D3E4
:1019E00028786978134C4018A9784018E97888421B
:1019F00002D1012121700AE00020207000F044F99A
:101A00000C490422891D0448FEF799FB21780AA09D
:101A100000F0EEFE70BD00000000002052455F4265
:101A20007566665B25645D203D20307825780D0A5B
:101A30000000000010000020756172745F666C6128
:101A400067203D2025640D0A00000000FFB5064612
:101A500004466036707A83B00D46202858D1002D98
:101A60000CD00598002809D00120A168000381420C
:101A700007D12069002804D1E80702D0012007B06F
:101A8000F0BD307A012843D0012030720020E0669A
:101A900021207072FEF7FCFF019027464037059821
:101AA00038820598788218E0788A401E78820698F5
:101AB0000090002280212046019B00F060FE00285B
:101AC00018D10120A1680003814202D120690028B9
:101AD00012D02168287808856D1C788A0028E3D107
:101AE00006980090002240212046019B00F047FE0E
:101AF000002808D00320C2E728882168C005C00D4F
:101B00000885AD1CE9E72020707200203072B6E72E
:101B10000220B4E77047FEE7F0B52D4887B0426970
:101B2000012149040A43426142690A40059242691F
:101B300049000A434261406900220840059009209B
:101B40000421C006FEF79DFF002207212148FEF771
:101B500098FF0122160331461E48FEF792FF01222C
:101B6000170209203946C006FEF78BFF04200090BB
:101B70000220029001250024092001956946039462
:101B8000C006FEF7CDFE072000900294694601953D
:101B900003941048FEF7C4FE019569460D4800966F
:101BA00002950394FEF7BCFE092001956946C00624
:101BB000009702950394FEF7B3FE3820009001943D
:101BC000694602940348FEF7ABFE07B0F0BD000083
:101BD000001002400004004810B51248104901608E
:101BE000FF21053141600121C903816007210902FC
:101BF000C1600021012201615202826141610162E2
:101C000020224162C26181620722C262016308210F
:101C10004163FFF71DFB002800D0FEE710BD000068
:101C2000003800405801002030B5164B87B0002422
:101C30009C601C610D46521E9C611149DA6019605E
:101C400058601846FFF766FC002800D0FEE70D48F4
:101C5000FFF70CFD002800D0FEE760200090029402
:101C600000226946019504940648FFF797FC002876
:101C700000D0FEE70348FFF779FC07B030BD000055
:101C800000200040BC01002010B50C480A4901604A
:101C9000E1214902416000218160C16001618161EF
:101CA000C1610C22016242614162FFF7BFFD002861
:101CB00000D0FEE710BD000000380140FC0100200C
:101CC00010B50C480A490160E12149024160002138
:101CD0008160C16001618161C1610C220162426168
:101CE0004162FFF7A3FD002800D0FEE710BD000011
:101CF000004800406C020020704700008307FF226C
:101D0000DB0E9A408907090E994000280BDA00077C
:101D1000000F0838830808489B001818C3699343CC
:101D20000B43C3617047830804489B001B18186865
:101D3000904308431860704700ED00E000E400E0C5
:101D400010B5254C25A06178491E00F051FDA17801
:101D500025A0491E00F04CFD6078222822D02328BF
:101D600020D024281ED0272828D0262826D01B287B
:101D700024D0192822D0172820D016281ED01C289D
:101D80001CD0A2781C494000515C1B4A15328018B7
:101D90004038C08F6422FFF747FF00211748FFF744
:101DA00081FC10BD1449A278C831515C124A400030
:101DB000DD3280184038C08F1422ECE70E49A2783B
:101DC0006431515C0C4A491C40007932801840381B
:101DD000C9B2C08F3C22DEE7000000206672652099
:101DE0003D2025640D0A00006379636C65203D2069
:101DF00025640D0A0000000027000020BC0100201F
:101E000070470000F8B52A480026427802210427CE
:101E10000125284C2848012A13D0022A2DD0032A54
:101E20002AD121700321617020210746FEF724FE8C
:101E3000002835D020213846FEF71EFE012832D07A
:101E400013E02170657008211B48FEF715FE00287D
:101E500006D008211848FEF70FFE012802D004E042
:101E6000A57019E0A67003201FE07D23DB0004228B
:101E700010491248FFF7EAFDF8BD2170617010218A
:101E80000D48FEF7F9FD002808D010210A48FEF79A
:101E9000F3FD0128E9D1A670E770E6E7A57003E03D
:101EA000A570062001E0A6700520E070DDE70000C7
:101EB000000000201A00002000040048FC0100205F
:101EC000F8B50F460B461546009203210446002242
:101ED000C90200F01BF82026002812D13B46002240
:101EE00080212046009500F05CF8002809D10321EC
:101EF0003B46002249022046009500F007F80028E2
:101F000003D0206E304320660320F8BDF8B51D468F
:101F100017460E4604463DE0032149028E4205D194
:101F2000002F03D1017B684601700078681C31D016
:101F3000002D05D0FEF7ACFD0699401AA84229D322
:101F400020684168E022914341606068C11FFD390B
:101F50000CD10121A068C903884202D049118842EE
:101F600004D1206801684022914301600120A16AE8
:101F70004003814207D121680A6882430A602168D0
:101F80000A6802430A60012040346077002020770D
:101F90000320F8BD206881683140B942BCD10020DF
:101FA000F8BDF8B51D4617460E46044633E0681CDA
:101FB00031D0002D05D0FEF76BFD0699401AA842DE
:101FC00029D320684168E022914341606068C11FC5
:101FD000FD390CD10121A068C903884202D0491102
:101FE000884204D1206801684022914301600120A9
:101FF000A16A4003814207D121680A6882430A60CE
:1020000021680A6802430A6001204034607700209A
:1020100020770320F8BD206881683046884304D0CB
:102020000020B842C3D10020F8BD0120F9E7704775
:1020300010B5FEF733FDFFF769FA10BD70B598B023
:1020400002251020099504900095C0020A904001D5
:10205000012600240B9003960C946846FEF70CFFB3
:10206000002800D0FEE707200D900F9401210E9567
:1020700010940DA8FEF7FCFD002800D0FEE711A883
:1020800011961394FEF764FD002800D0FEE7FEF7DA
:1020900099FE7D21C900FEF72BF8FFF71FFA0420F7
:1020A000FFF70EFA00221146501EFEF74DFD18B044
:1020B00070BD0000124801680122114301604168AF
:1020C000104A1140416001680F4A114001600168E7
:1020D000012292049143016041683F22120491431E
:1020E0004160C16A09090901C162016B074A1140D7
:1020F0000163416B490849004163002181607047D9
:10210000001002400CB8FF08FFFFF6FE2CFEFCFF9B
:10211000F0B502681D4B0124A4071D4D984203D061
:10212000A04201D0A84203D17026B2434E68324388
:10213000184E194F98420DD0A0420BD0A84209D09A
:10214000164CA04206D0B04204D0B84202D0144C83
:10215000A04204D103242402A243CC682243802459
:10216000A2434C69224302608A68C2620A688262A2
:10217000984206D0B04204D0B84202D0084A9042F9
:1021800001D10969016301214161F0BD002C0140C9
:102190000004004000400140004401400020004095
:1021A0000048014010B50123046A8B409C4304623F
:1021B000036A8A401343036210BD0000F0B5026A4F
:1021C000520852000262056A436882697024A24381
:1021D00092080C6892001443022295438A68164EB6
:1021E0002A43144DA84207D0B04205D0134FB8423D
:1021F00002D0134FB84206D10827BA43CF6817431D
:10220000042297433A46A84207D0B04205D00B4D6E
:10221000A84202D00A4DA84206D103252D02AB43A5
:102220004D691D438B692B43436084614968416359
:102230000262F0BD002C014000400140004401401A
:102240000048014070B5026A10239A430262056A91
:102250004268836973242402A3430C6824021C434C
:1022600020239D438B681B012B43124DA84208D1AC
:102270001D46CB688026B5431B012B434025AB434D
:1022800008E00D4DA84205D00C4DA84202D00C4DDF
:10229000A84208D10325AD02AA434D69AD001543FC
:1022A0008A6992002A4342608461496881630362BB
:1022B00070BD0000002C014000400140004401407E
:1022C0000048014070B5026AFF2301339A4302625D
:1022D000056A4368C2697024A24392080C689200A0
:1022E00014430122520295438A6812022A43124D76
:1022F000A84208D11546CA68C614B54312022A433B
:102300000515AA4308E00D4DA84205D00C4DA84282
:1023100002D00C4DA84208D103252D03AB434D69D3
:102320002D011D438B691B012B434360C461496828
:10233000C163026270BD0000002C014000400140FA
:10234000004401400048014030B5026A01231B03EC
:102350009A430262046A4268C36973252D02AB4343
:102360000D682D021D4301235B039C438B681B03F7
:1023700023430C4CA04208D00B4CA04205D00B4C80
:10238000A04202D00A4CA04205D10124A403A243DA
:102390004C69A40122434260C5614968016403623B
:1023A00030BD0000002C01400040014000440140CD
:1023B0000048014010B5818CC90707D001684A6800
:1023C00001235B049A43836A1A434A60818C89071C
:1023D00007D501684A6801231B049A43C36A1A435C
:1023E0004A60818C490707D501684A6801239B042C
:1023F0009A43036B1A434A60818C090707D5016829
:102400004A680123DB039A43436B1A434A60818C79
:10241000C90607D50268916801231B039943836BA2
:1024200019439160818C890607D501688A68012368
:102430005B039A43C36B1A438A60818C490612D5A9
:1024400003685A6801210905046C8A4322435A60D3
:10245000026C8A4207D10268516803235B059943E5
:10246000436C19435160818C090607D501684A689D
:102470000123DB04806C9A4302434A6010BD0000D4
:10248000F8B500260446C666FEF702FB0546164967
:102490002068884202D0154988421DD10068144F37
:1024A000000709D501212B46002249052046009747
:1024B00000F065F900280DD12068006840070BD5B1
:1024C00001212B46002289052046009700F057F98C
:1024D000002801D00320F8BD202060346072A07273
:1024E00026720020F8BD0000003801400044004082
:1024F000FFFFFF0110B5406A0022014640314A83C8
:102500004A82FFF7F8F810BD01680A68FF232133FB
:102510009A430A6001688A68520852008A60202142
:1025200060308172704710B501680A6840239A4391
:102530000A60202269210A54FFF7ECFA002010BD3E
:1025400070B50246403203466033948B9D7A016831
:10255000222D05D08869082210438861022070BDB1
:10256000898C012685683603B54202D10569002DA4
:102570000BD02140446D651C45652170518B491E6F
:102580000904090C518307D015E0456D21402980CD
:10259000416D891C4165F1E701680A68FF24213417
:1025A000A2430A6001688A68520852008A602021AA
:1025B0009972FFF709FA002070BD0000F8B50446D3
:1025C0002369A268E5691A43636910202B4300213F
:1025D00025681A432B680E46474F3B4013432B6038
:1025E00023685A6803252D03AA43E5682A435A60E5
:1025F000236AA26925681A43AB680B273F02BB43D5
:102600001343AB603D4F25683D4B0203BD420AD1E9
:102610001B6B9B079B0F20D0012B14D0022B14D0D7
:10262000032B1BD10DE0374FBD4210D11B6B03278D
:102630003F043B4011D09B1A05D09B1A05D0934212
:102640000CD102200AE0042008E0082006E02E4B0E
:102650009D4202D02D4B9D4200D100200123E7690D
:10266000DB039F4222D100280CD002280DD0042881
:1026700013D0082817D001260A0912010807400FB5
:1026800010432EE0FEF7A4FB09E06168204A4808E9
:102690008018FDF72DFD81B2EEE7FEF7A9FB61681A
:1026A00040004A08F4E761684808F1E7002808D0CC
:1026B000022809D004280CD0082815D0012630465D
:1026C000F8BDFEF785FB06E06168124A48088018ED
:1026D0000DE0FEF78DFB61684A088018FDF708FDE4
:1026E00080B22168C860EAE761684808C018FDF751
:1026F000FFFC80B2E860E2E7F369FFEF00380140D9
:10270000001002400044004000480040004C0040DF
:102710000024F40000127A006921095C212901D00B
:102720000220704702464032518A002912D001230C
:1027300081681B03994202D10169002915D0C16C3F
:102740004B1CC364006809780185508A401E508282
:102750000020704701680A6880239A430A60006875
:102760000168402211430160F2E7C16C03680988E7
:10277000C905C90D1985C16C891CC164E5E7FFB5A0
:1027800081B017460E4604460A9D1DE0681C1BD00A
:10279000002D05D0FEF77CF90499401AA84213D900
:1027A00020680168FF22A13291430160206881689E
:1027B000490849008160202060346072A0720020C6
:1027C0002072032005B0F0BD2068C16930468843FF
:1027D00004D00020B842D9D00020F3E70120F9E767
:1027E00010B50248FEF788FF10BD0000FC01002074
:1027F0000FB410B503A9044B044A029800F0F6F890
:1028000010BC08BC04B01847253100085401002052
:102810002021020C01D010211046020A01D01046DE
:102820000839020901D01046091F820801D010465C
:10283000891E420801D0881E7047081A704730B4BC
:102840007446641E2578641CAB4200D21D46635D4D
:102850005B00E31830BC184702E008C8121F08C12B
:10286000002AFAD170477047002001E001C1121F11
:10287000002AFBD170470000F0B51FB486B009985C
:10288000089A030D0021024314D05148514A1818E8
:10289000504305141198012810981AD0281A401C8A
:1028A00000264D4F4D49009601910490002812DA00
:1028B000444211E01198012449A3012801D1109844
:1028C000C1430698119A84600360C26041600BB0F6
:1028D000F0BD4042E4E70446210500203F4A001CC9
:1028E00051410391029012E0E00707D032463B4687
:1028F00001990098FDF7E8FC0191009032463B46B3
:1029000010461946FDF7E0FC06460F466410002C01
:10291000EAD10498039B0028029A0999089806DADC
:10292000FDF7D2FC019B009AFDF7CEFC05E0FDF718
:1029300033FD019B009AFDF72FFD04460E46002251
:10294000284BFDF7A5FE03D80020C043014607E051
:102950000022254B20463146FDF704FCFDF778FEAA
:10296000102409E0002C0ADB0A220023FDF7BEFD3B
:10297000079B30321A55641E02460A43F2D11122D7
:10298000641C079B121B1C19119B012B03D00123F4
:1029900008430ED10AE0084304D011201090002013
:1029A000119077E71098151A6D1E0BE0109882426F
:1029B00002DD00236D1C03E0824201DA00236D1E5C
:1029C000002BEED0069811998260C16030C07EE77E
:1029D00001FCFFFF104D0000000014400000F03F1C
:1029E000300000000000F0430000E03FFFB597B06A
:1029F0000646002518E2252877D100242746FD4900
:102A0000049400E00443761C32780120203A904080
:102A10000842F7D130782A280ED0022230780146B9
:102A20003039092916D804990A23594330394018F6
:102A30001443761C0490F1E7189802C8049118908A
:102A4000002904DA01204003044348420490022094
:102A50000443761C30782E2814D104200443707867
:102A6000761C2A2809D11898761C80C8189009E08D
:102A70000A214F43303FC719761C30780146303960
:102A80000929F5D930786C2810D006DC4C281AD0EA
:102A900068280ED06A2817D104E0742813D07A2849
:102AA00012D110E00120400504430CE0012109058A
:102AB00001E0032109050C437178814203D1012013
:102AC00000052418761C761C3078119066280BD0EF
:102AD00013DC58287DD009DC00287BD04528F6D0AF
:102AE0004628F4D047281AD1A5E118E0632835D04C
:102AF000642870D0652812D19DE170286CD008DC64
:102B00006728F1D069287BD06E280DD06F2806D1B8
:102B1000BAE073282ED0752871D0782859D01A9A27
:102B2000199990476D1C7EE16002400F022809D080
:102B300003280DD00428189801680DD00D60001DE1
:102B4000189070E11898EA1701680D604A60F6E77E
:102B5000189801680D80F2E70D70F0E718986A4642
:102B600001781172001D18900020507202A8009088
:102B7000012005E0189802C8189000200091C04379
:102B800061070DD5002101E00199491C0191B9426D
:102B900012DA8142F8DB009A515C0029F4D10BE093
:102BA000002101E00199491C01918142FADB019A5F
:102BB0000099895C0029F5D1019904981A9B471A5C
:102BC00021463846199A00F097FA0199401945189C
:102BD0000BE04FE02CE113E04EE000980099007804
:102BE000491C00911A9A199990470198401E01902A
:102BF000401CF2D1214638461A9B199A10E137E061
:102C00000A200021009001916002410F022907D0A3
:102C1000189A01CA1892C2179446032908D00AE0EC
:102C20001898C01DC108C90005C91891944607E04D
:102C300000B2C2179446042902D140B2C1178C4693
:102C400000226146944506DA0A460021404291413D
:102C50008C462D2102E0210504D52B216A461173F3
:102C6000012103E0E10701D02021F7E7029155E0BF
:102C70000A200AE0102008E0102000900021042023
:102C800004430191082703E00820002101910090EE
:102C90006002410F022907D0189A01CA1892002237
:102CA0009446032908D008E01898C01DC108C9003F
:102CB00005C91891944603E080B2042900D1C0B23E
:102CC00000210291210729D51199702906D0009A77
:102CD0001021019B4A401A4305D00EE040216A466C
:102CE0001173012108E06146014306D030216A4694
:102CF00011731199517302210291009A0821019BCD
:102D00004A401A430AD16146014301D1610705D502
:102D100030216A46117301217F1E029111995829B1
:102D200004D035A10E910DA90D910DE037A1F9E761
:102D30006146019B009AFDF7D9FB0E9B8C469B5C7C
:102D40000D9A521E0D92137061460143F0D10D98F9
:102D500005A9081A20300190600703D5012000045E
:102D6000844300E001270198874201DD381A00E022
:102D70000020019900904118029809180498401AFF
:102D80000490E00306D421461A9B199A049800F097
:102D9000B3F94519002706E003A81A9AC05D1999EE
:102DA00090476D1C7F1C02988742F5DBE0030CD531
:102DB00021461A9B199A049800F09EF9451904E0DF
:102DC0001A9A3020199990476D1C0099481E00905E
:102DD0000029F5DC08E00D980D990078491C0D914B
:102DE0001A9A199990476D1C0199481E0190002963
:102DF000F1DC63E1092801003031323334353637F4
:102E00003839616263646566000000003031323336
:102E100034353637383941424344454600000000D6
:102E200000F05AF94519761C3078002800D0E2E508
:102E300028461BB0F0BD600700D406271898C01DB7
:102E4000C108C90048680A680831C30FDB07189138
:102E5000190001D09CA108E0210501D59BA104E047
:102E6000E10701D09AA100E09AA1430011985B0804
:102E7000109165280CD006DC452809D046281DD0C5
:102E8000472841D141E0662818D067283CD13CE072
:102E90000021112F01DB112000E0781C019100902E
:102EA00008A911A8FFF7E8FC139905910021119AD0
:102EB00015927F1C12980197009150E00120C007E5
:102EC00003900120019008A9009711A8FFF7D4FCF6
:102ED000139A149905920022119B0092129815934F
:102EE000059A0192002901D0104602E0791C401891
:102EF0000190381A01D5019804E04042401E00902C
:102F0000781C0190C01B029043E0012F00DA0127DA
:102F10000021112F01DD112000E0384601910090C1
:102F200008A911A8FFF7A8FC13990591119A00218F
:102F3000129815920091019721070CD40599B94276
:102F400001DB019900E00191012904DD159A491E78
:102F5000515C302906D0B84201DA011D05DA0121A1
:102F6000029115E00199491EEDE7002805DC009962
:102F7000411800910199091A03E0019A411C9142FC
:102F800000DD01910099401A401C02900120C00709
:102F90000390200706D402990198814202DB0020A9
:102FA000C043029000206946C87707AF012103980B
:102FB0000337C907884224D0022011902B20129099
:102FC000039800280CDA404203902D20129007E06D
:102FD0000A210398FDF78CF830317F1E0390397079
:102FE0001199481E11900029F2DC03980028EFD1B6
:102FF000791E129808703078202108404530BF1E95
:10300000387006A8C01BC01D0390109800780028D7
:1030100000D00120019941180298C017091803989F
:1030200009180498401A401E0490E00306D4214673
:103030001A9B199A049800F05FF8451910980078C7
:10304000002803D01A9A199990476D1CE00324D5E3
:1030500021461A9B199A049800F04EF845191CE075
:103060000098002807DB00990598884203DD159831
:10307000405C199901E0199930201A9A90470098FC
:103080006D1C401C00900298401E0290002804D144
:103090001A9A2E20199990476D1C0199481E01908B
:1030A0000029DDDC05E038781A9A7F1C19999047D1
:1030B0006D1C0399481E03900029F4DC21461A9BDD
:1030C000199A0498ACE600002D0000002B000000C7
:1030D0002000000000000000F8B5044600251E4650
:1030E0001746880404D405E039462020B0476D1CFB
:1030F000641EF9D52846F8BDFFB50446002581B009
:103100001E46C80301D5302700E02027880404D5D7
:1031100005E038460399B0476D1C641EF9D5284672
:1031200005B0F0BD10B5044605487D230470014686
:10313000DB0001220348FEF789FC204610BD000099
:103140000C0000206C020020FDF7B0FCFEF776FFBB
:10315000FEF7E2FCFEF798FDFEF7B2FDFEF73CFD40
:10316000002211461046FEF75FFD124E124C00255C
:10317000042210491148FEF7D7FB20780128F7D127
:1031800025700FA0FFF734FB30780300FFF757FBE3
:10319000060405080B0B0E04EAE7FDF705FBE7E75D
:1031A000FEF730FEE4E7FDF7C5FAE1E7FEF7C8FDFC
:1031B000DEE700000000002010000020FC010020DD
:1031C0002A2A2A2A2A2A2A2A2A2A2A446174652093
:1031D0004F6B21202A2A2A2A2A2A2A2A2A2A0D0A39
:1031E00000000000000000000000000001020304D5
:1031F0000607080900000000010203041C32000851
:103200000000002058010000DC060008043300081C
:1032100058010020880500006828000891031D124D
:103220007A101C050A0F14191E23282D32373C4131
:10323000464B50555A5F64C003E0014001F012C094
:1032400012A012891277126A125F1256124F124997
:103250001243123F123B123712341231122F122D29
:10326000122A1228122712251224122312211220A8
:10327000121F121E121D121C121B1A1A0212191AE8
:103280001802121710160306090C0F1215181B1E30
:103290002124272A2D303336393C01120212031221
:1032A0000412051206120712081209120A120B1252
:1032B0000C120D120E120F12101211121212131202
:1032C00014124B12481A45461A3F50123A1A385EE9
:1032D0001A1E661A206E1A22741A247C1A29841265
:1032E000280815340102030405060708090A0B0C17
:1032F0000D0E0F1011121314649A1C64128C128894
:043300007A84644126
:04000005080000C12E
:00000001FF
